:1080000075813CD2BC7400F532F531F53090FFC378
:10801000F090FFC2F090FFC1F07537027533017523
:108020003401753502753601785079607601770133
:10803000863387347C017D0875890143A882758C5D
:1080400000758A00C3D28CAB8A12823A12820B80EE
:10805000F6C28CDD0E1280661280BE1280FB128189
:10806000CA7D08D28C32C0D0D2D4D2D37D0074EF76
:10807000D3FE0D1280B5B4FF07EED313503480F158
:108080007E001350030E80FAEE75F005A42D1282C7
:10809000B1C3FF9537B4020302825AB404030282CB
:1080A0005AF404B4020302825AB4040302825AEF5F
:1080B000F537D0D02290FFF0F090FFF1E022AF37FB
:1080C00078507960BF0008E614B4002512825ABFC8
:1080D0000108E704B4091F12825ABF0208E604B47B
:1080E000090F12825ABF0509E714B4000912825A17
:1080F00022F5338734228633F53422E533B535153E
:10810000E534B53610740090FFC6F012826F12810C
:108110007D128119221281A122EB241175F065A430
:10812000C3FF75F04084E5F075F0088404F535E58B
:10813000F004F5368A387A0074502AF8E6B535032B
:1081400002814D0AEA8CF0B5F0EEAA38227A00746A
:10815000602AF9E7B53603EF80C00AEA8CF0B5F083
:10816000EEAA3822E535B4080CE536B4080B7401E4
:10817000F535F5362204F5352204F536228CF0E586
:10818000F0142450F82410F9863887390809A638E5
:10819000A739E5F014F5F070E60C853350853460AE
:1081A000228CF0E5F014601BE5F014142450F82440
:1081B00010F9863887390809A638A739E5F014F58B
:1081C000F070E5853350853460228A39EC146038CC
:1081D00014603514603214602FF5387A0074542A14
:1081E000F8E6B550030281EE0AEAB538F0227A00CB
:1081F00074642AF9E7B5600B74542AF8E6B55008A0
:1082000002825A0AEAB538E8AA39227A0074009044
:10821000FFC6F090FFC7F074502AF8E61282CB90A8
:10822000FFC5F074602AF9E71282D990FFC7F00AFF
:10823000EA8CF0B5F0D790000022740090FFC5F0F2
:1082400090FFC7F0E5351282CB90FFC6F0E53612FD
:1082500082D990FFC7F090000022740090FFC5F013
:1082600074FF90FFC6F090FFC7F0C28C80FE228C96
:1082700032E532D4F53290FFC1F0EC900000B4004A
:1082800026E5312401D4FFF53190FFC2F0B4001788
:10829000E5302401D4FFF53090FFC3F0B40008743A
:1082A00000F532F531F530227FFF7EFFDEFEDFFA8A
:1082B00022832217161514130C0D0E0F1108090A2C
:1082C0000B120405060710000102039082D09322CE
:1082D0000001020408102040809082DE93220001F9
:1082E000020408102040809082EC932200010203D7
:0D82F00004050607080910111213141516D5
:039F0B0002805180
:00000001FF
